:03000000020A9160
:0C0A9100787FE4F6D8FD758130020AD8A9
:10099800494E56414C49442055534552000D0A4989
:1009A8004E56414C494420555345520D0A003136A4
:1009B8003031343032343031330031363031343044
:1009C8003234303134003136303134303234303131
:1009D800350031363031343032343031360031364A
:1009E8003031343032343031370031363031343010
:1009F80032343031380045584954000D0A455849B9
:100A0800540D0A005041524B494E472046554C4C14
:100A1800000D0A5041524B494E472046554C4C0D4B
:100A28000A004B41555348494B49004348414954F2
:100A3800414E59414100564544414E544900505594
:100A4800525600554B534841414E004D414E41537B
:100A5800000D0A534C4F5420000D0A00534D4152CB
:100A680054205041524B494E472052454144590D5C
:100A78000A00454E544552204944000D0A456E74FB
:090A880065722049443A0D0A0090
:100C8E000A13000000000000000000000C1DFFFF12
:0A0C9E00FFFFFFFFFFFFFFFFFFFF56
:100C5400E4FFFEE4FDFC0DBD00010CED64C84C7026
:0C0C6400F50FBF00010EEF64324E70E788
:010C70002261
:080D12008F993099FDC299226E
:100C0A008B2E8A2F8930AB2EAA2FA930120B1D608A
:100C1A00130530E5307002052F14F9120B1DFF126F
:050C2A000D1280E22222
:0E0CEA008F90C2A5C2A6D2A7120C54C2A72298
:0E0CF8008F90D2A5C2A6D2A7120C54C2A7227A
:100C2F008B2E8A2F8930AB2EAA2FA930120B1D6065
:100C3F00130530E5307002052F14F9120B1DFF124A
:050C4F000CF880E22218
:100CC3007F38120CEA7F0C120CEA7F01120CEA7FC8
:040CD30080020CEAA5
:0C0D0600759850758920758DFDD28E22E5
:100B9100E4F529E529C3940B50213098FDE59964CA
:100BA1000D6014E599640A600E74082529F8A69968
:0C0BB100AF99120D120529C29880D822BD
:060BBD008B2E8A2F893007
:100BC300E4FFAB2EAA2FA9308F82758300120B3658
:100BD300FE74082FF8E66E6002C3220FBF0BE3D347
:010BE30022EF
:100BE400E4FFEF25E02413F8E6FC08E64C700EEF72
:100BF40025E02413F876000876017E00220FBF0555
:050C0400E17EFF7FFF0F
:010C090022C8
:100C7100C3EE648094804014EF9405EE6480948008
:0D0C8100500AEF25E02413F8E4F608F622EF
:100CD700D2A0C2A1120C54C2A0D2A1120C54C2A01D
:030CE700C2A12285
:100CA9007F01120CEA7BFF7A097998120C2F7BFFDE
:0A0CB9007A0979A5120C0A020C5406
:1008000074FFF52AF52BFB7A0979B6120BBD500758
:10081000E4F52AF52B805D7BFF7A0979C2120BBDC6
:100820005008752A00752B01804A7BFF7A0979CE22
:10083000120BBD5008752A00752B0280377BFF7A9A
:100840000979DA120BBD5008752A00752B03802434
:100850007BFF7A0979E6120BBD5008752A00752BCB
:100860000480117BFF7A0979F2120BBD5006752ABC
:1008700000752B05E52BB4FF08E52AB4FF03020C35
:10088000A9E52B25E0241DF8E6FE08E6FFF470023A
:10089000EEF46025120C71E52B25E0241DF874FFA1
:1008A000F608F67F01120CEA7BFF7A0979FE120C3A
:1008B0002F7BFF7A0A79038025120BE48E2C8F2D73
:1008C000E52DB4FF1FE52CB4FF1A7F01120CEA7B63
:1008D000FF7A0A790C120C2F7BFF7A0A7919120C15
:1008E0000A020C54E52B25E0241DF8A62C08A62DA1
:1008F0007F01120CEAE52B452A70087BFF7A0A7902
:100900002A804EE52B6401452A70087BFF7A0A791C
:1009100033803EE52B6402452A70087BFF7A0A7912
:100920003E802EE52B6403452A70087BFF7A0A7906
:1009300046801EE52B6404452A70087BFF7A0A79FD
:100940004B800EE52B6405452A70097BFF7A0A79F6
:1009500053120C2F7FC0120CEA7F53120CF87F4CFD
:10096000120CF87F4F120CF87F54120CF87F3A12D9
:100970000CF8E52D2431FF120CF87BFF7A0A795927
:10098000120C0AE52D2431FF120D127BFF7A0A7931
:0709900061120C0A120CD7E2
:01099700223D
:100B6300120D06120CC37BFF7A0A7964120C0A7FFA
:100B730001120CEA7BFF7A0A797A120C2F7BFF7A37
:0E0B83000A7983120C0A120B9112080080E10D
:100A9D00020B63E493A3F8E493A34003F68001F201
:100AAD0008DFF48029E493A3F85407240CC8C3335A
:100ABD00C4540F4420C8834004F456800146F6DF29
:100ACD00E4800B0102040810204080900C8EE47E1F
:100ADD00019360BCA3FF543F30E509541FFEE4931E
:100AED00A360010ECF54C025E060A840B8E493A3E5
:100AFD00FAE493A3F8E493A3C8C582C8CAC583CA10
:100B0D00F0A3C8C582C8CAC583CADFE9DEE780BEC7
:010CA800004B
:100B1D00BB010689828A83E0225002E722BBFE02D6
:090B2D00E32289828A83E4932209
:100B3600BB010CE58229F582E5833AF583E0225074
:100B460006E92582F8E622BBFE06E92582F8E222BE
:0D0B5600E58229F582E5833AF583E49322D8
:00000001FF
